{
  "_format": "hh-sol-artifact-1",
  "contractName": "Escrow",
  "sourceName": "contracts/Escrow.sol",
  "abi": [
    {
      "anonymous": false,
      "inputs": [
        {
          "indexed": true,
          "internalType": "string",
          "name": "projectId",
          "type": "string"
        },
        {
          "indexed": false,
          "internalType": "uint256",
          "name": "amount",
          "type": "uint256"
        }
      ],
      "name": "Deposited",
      "type": "event"
    },
    {
      "anonymous": false,
      "inputs": [
        {
          "indexed": true,
          "internalType": "string",
          "name": "projectId",
          "type": "string"
        },
        {
          "indexed": true,
          "internalType": "address",
          "name": "freelancer",
          "type": "address"
        },
        {
          "indexed": false,
          "internalType": "uint256",
          "name": "amount",
          "type": "uint256"
        }
      ],
      "name": "Released",
      "type": "event"
    },
    {
      "inputs": [
        {
          "internalType": "string",
          "name": "projectId",
          "type": "string"
        }
      ],
      "name": "depositFunds",
      "outputs": [],
      "stateMutability": "payable",
      "type": "function"
    },
    {
      "inputs": [
        {
          "internalType": "string",
          "name": "projectId",
          "type": "string"
        }
      ],
      "name": "getBalance",
      "outputs": [
        {
          "internalType": "uint256",
          "name": "",
          "type": "uint256"
        }
      ],
      "stateMutability": "view",
      "type": "function"
    },
    {
      "inputs": [
        {
          "internalType": "string",
          "name": "",
          "type": "string"
        }
      ],
      "name": "projectBalances",
      "outputs": [
        {
          "internalType": "uint256",
          "name": "",
          "type": "uint256"
        }
      ],
      "stateMutability": "view",
      "type": "function"
    },
    {
      "inputs": [
        {
          "internalType": "string",
          "name": "projectId",
          "type": "string"
        },
        {
          "internalType": "address payable",
          "name": "freelancer",
          "type": "address"
        },
        {
          "internalType": "uint256",
          "name": "amountInEth",
          "type": "uint256"
        }
      ],
      "name": "releaseFunds",
      "outputs": [],
      "stateMutability": "nonpayable",
      "type": "function"
    }
  ],
  "bytecode": "0x608060405234801561001057600080fd5b50610912806100206000396000f3fe60806040526004361061003f5760003560e01c80633a51d24614610044578063a45ccbc614610081578063a4ce6c161461009d578063e1a0d576146100c6575b600080fd5b34801561005057600080fd5b5061006b6004803603810190610066919061051c565b610103565b604051610078919061057e565b60405180910390f35b61009b6004803603810190610096919061051c565b61012a565b005b3480156100a957600080fd5b506100c460048036038101906100bf9190610623565b6101f2565b005b3480156100d257600080fd5b506100ed60048036038101906100e8919061051c565b610394565b6040516100fa919061057e565b60405180910390f35b600080826040516101149190610703565b9081526020016040518091039020549050919050565b6000341161016d576040517f08c379a000000000000000000000000000000000000000000000000000000000815260040161016490610777565b60405180910390fd5b3460008260405161017e9190610703565b9081526020016040518091039020600082825461019b91906107c6565b92505081905550806040516101b09190610703565b60405180910390207f880c4b7c8747669306e3b72460e49eb603636d5b46288bdd42ce8e3cc9df737e346040516101e7919061057e565b60405180910390a250565b6000670de0b6b3a76400008261020891906107fa565b90506000811161024d576040517f08c379a000000000000000000000000000000000000000000000000000000000815260040161024490610777565b60405180910390fd5b8060008560405161025e9190610703565b90815260200160405180910390205410156102ae576040517f08c379a00000000000000000000000000000000000000000000000000000000081526004016102a590610888565b60405180910390fd5b806000856040516102bf9190610703565b908152602001604051809103902060008282546102dc91906108a8565b925050819055508273ffffffffffffffffffffffffffffffffffffffff166108fc829081150290604051600060405180830381858888f19350505050158015610329573d6000803e3d6000fd5b508273ffffffffffffffffffffffffffffffffffffffff168460405161034f9190610703565b60405180910390207fecfaefb21a9167b242135b5b3860739608248e70c5b1bc89a05221f147ff31f783604051610386919061057e565b60405180910390a350505050565b6000818051602081018201805184825260208301602085012081835280955050505050506000915090505481565b6000604051905090565b600080fd5b600080fd5b600080fd5b600080fd5b6000601f19601f8301169050919050565b7f4e487b7100000000000000000000000000000000000000000000000000000000600052604160045260246000fd5b610429826103e0565b810181811067ffffffffffffffff82111715610448576104476103f1565b5b80604052505050565b600061045b6103c2565b90506104678282610420565b919050565b600067ffffffffffffffff821115610487576104866103f1565b5b610490826103e0565b9050602081019050919050565b82818337600083830152505050565b60006104bf6104ba8461046c565b610451565b9050828152602081018484840111156104db576104da6103db565b5b6104e684828561049d565b509392505050565b600082601f830112610503576105026103d6565b5b81356105138482602086016104ac565b91505092915050565b600060208284031215610532576105316103cc565b5b600082013567ffffffffffffffff8111156105505761054f6103d1565b5b61055c848285016104ee565b91505092915050565b6000819050919050565b61057881610565565b82525050565b6000602082019050610593600083018461056f565b92915050565b600073ffffffffffffffffffffffffffffffffffffffff82169050919050565b60006105c482610599565b9050919050565b6105d4816105b9565b81146105df57600080fd5b50565b6000813590506105f1816105cb565b92915050565b61060081610565565b811461060b57600080fd5b50565b60008135905061061d816105f7565b92915050565b60008060006060848603121561063c5761063b6103cc565b5b600084013567ffffffffffffffff81111561065a576106596103d1565b5b610666868287016104ee565b9350506020610677868287016105e2565b92505060406106888682870161060e565b9150509250925092565b600081519050919050565b600081905092915050565b60005b838110156106c65780820151818401526020810190506106ab565b60008484015250505050565b60006106dd82610692565b6106e7818561069d565b93506106f78185602086016106a8565b80840191505092915050565b600061070f82846106d2565b915081905092915050565b600082825260208201905092915050565b7f416d6f756e74206d7573742062652067726561746572207468616e207a65726f600082015250565b600061076160208361071a565b915061076c8261072b565b602082019050919050565b6000602082019050818103600083015261079081610754565b9050919050565b7f4e487b7100000000000000000000000000000000000000000000000000000000600052601160045260246000fd5b60006107d182610565565b91506107dc83610565565b92508282019050808211156107f4576107f3610797565b5b92915050565b600061080582610565565b915061081083610565565b925082820261081e81610565565b9150828204841483151761083557610834610797565b5b5092915050565b7f496e73756666696369656e742066756e64730000000000000000000000000000600082015250565b600061087260128361071a565b915061087d8261083c565b602082019050919050565b600060208201905081810360008301526108a181610865565b9050919050565b60006108b382610565565b91506108be83610565565b92508282039050818111156108d6576108d5610797565b5b9291505056fea2646970667358221220bbc2ef070fa0c4f1f97d26c63a2d573b85549a8a059c857b5b00ba426f20e89664736f6c63430008130033",
  "linkReferences": {},
  "deployedLinkReferences": {}
}