{
  "_format": "hh-sol-artifact-1",
  "contractName": "Escrow",
  "sourceName": "contracts/Escrow.sol",
  "abi": [
    {
      "anonymous": false,
      "inputs": [
        {
          "indexed": true,
          "internalType": "string",
          "name": "projectId",
          "type": "string"
        },
        {
          "indexed": false,
          "internalType": "uint256",
          "name": "amount",
          "type": "uint256"
        }
      ],
      "name": "Deposited",
      "type": "event"
    },
    {
      "anonymous": false,
      "inputs": [
        {
          "indexed": true,
          "internalType": "string",
          "name": "projectId",
          "type": "string"
        },
        {
          "indexed": true,
          "internalType": "address",
          "name": "freelancer",
          "type": "address"
        },
        {
          "indexed": false,
          "internalType": "uint256",
          "name": "amount",
          "type": "uint256"
        }
      ],
      "name": "Released",
      "type": "event"
    },
    {
      "inputs": [
        {
          "internalType": "string",
          "name": "projectId",
          "type": "string"
        }
      ],
      "name": "depositFunds",
      "outputs": [],
      "stateMutability": "payable",
      "type": "function"
    },
    {
      "inputs": [
        {
          "internalType": "string",
          "name": "projectId",
          "type": "string"
        }
      ],
      "name": "getBalance",
      "outputs": [
        {
          "internalType": "uint256",
          "name": "",
          "type": "uint256"
        }
      ],
      "stateMutability": "view",
      "type": "function"
    },
    {
      "inputs": [
        {
          "internalType": "string",
          "name": "",
          "type": "string"
        }
      ],
      "name": "projectBalances",
      "outputs": [
        {
          "internalType": "uint256",
          "name": "",
          "type": "uint256"
        }
      ],
      "stateMutability": "view",
      "type": "function"
    },
    {
      "inputs": [
        {
          "internalType": "string",
          "name": "projectId",
          "type": "string"
        },
        {
          "internalType": "address payable",
          "name": "freelancer",
          "type": "address"
        },
        {
          "internalType": "uint256",
          "name": "amountInWei",
          "type": "uint256"
        }
      ],
      "name": "releaseFunds",
      "outputs": [],
      "stateMutability": "nonpayable",
      "type": "function"
    }
  ],
  "bytecode": "0x6080604052348015600f57600080fd5b506108b78061001f6000396000f3fe60806040526004361061003f5760003560e01c80633a51d24614610044578063a45ccbc614610081578063a4ce6c161461009d578063e1a0d576146100c6575b600080fd5b34801561005057600080fd5b5061006b60048036038101906100669190610503565b610103565b6040516100789190610565565b60405180910390f35b61009b60048036038101906100969190610503565b61012a565b005b3480156100a957600080fd5b506100c460048036038101906100bf919061060a565b6101f2565b005b3480156100d257600080fd5b506100ed60048036038101906100e89190610503565b61037b565b6040516100fa9190610565565b60405180910390f35b6000808260405161011491906106ea565b9081526020016040518091039020549050919050565b6000341161016d576040517f08c379a00000000000000000000000000000000000000000000000000000000081526004016101649061075e565b60405180910390fd5b3460008260405161017e91906106ea565b9081526020016040518091039020600082825461019b91906107ad565b92505081905550806040516101b091906106ea565b60405180910390207f880c4b7c8747669306e3b72460e49eb603636d5b46288bdd42ce8e3cc9df737e346040516101e79190610565565b60405180910390a250565b60008111610235576040517f08c379a000000000000000000000000000000000000000000000000000000000815260040161022c9061075e565b60405180910390fd5b8060008460405161024691906106ea565b9081526020016040518091039020541015610296576040517f08c379a000000000000000000000000000000000000000000000000000000000815260040161028d9061082d565b60405180910390fd5b806000846040516102a791906106ea565b908152602001604051809103902060008282546102c4919061084d565b925050819055508173ffffffffffffffffffffffffffffffffffffffff166108fc829081150290604051600060405180830381858888f19350505050158015610311573d6000803e3d6000fd5b508173ffffffffffffffffffffffffffffffffffffffff168360405161033791906106ea565b60405180910390207fecfaefb21a9167b242135b5b3860739608248e70c5b1bc89a05221f147ff31f78360405161036e9190610565565b60405180910390a3505050565b6000818051602081018201805184825260208301602085012081835280955050505050506000915090505481565b6000604051905090565b600080fd5b600080fd5b600080fd5b600080fd5b6000601f19601f8301169050919050565b7f4e487b7100000000000000000000000000000000000000000000000000000000600052604160045260246000fd5b610410826103c7565b810181811067ffffffffffffffff8211171561042f5761042e6103d8565b5b80604052505050565b60006104426103a9565b905061044e8282610407565b919050565b600067ffffffffffffffff82111561046e5761046d6103d8565b5b610477826103c7565b9050602081019050919050565b82818337600083830152505050565b60006104a66104a184610453565b610438565b9050828152602081018484840111156104c2576104c16103c2565b5b6104cd848285610484565b509392505050565b600082601f8301126104ea576104e96103bd565b5b81356104fa848260208601610493565b91505092915050565b600060208284031215610519576105186103b3565b5b600082013567ffffffffffffffff811115610537576105366103b8565b5b610543848285016104d5565b91505092915050565b6000819050919050565b61055f8161054c565b82525050565b600060208201905061057a6000830184610556565b92915050565b600073ffffffffffffffffffffffffffffffffffffffff82169050919050565b60006105ab82610580565b9050919050565b6105bb816105a0565b81146105c657600080fd5b50565b6000813590506105d8816105b2565b92915050565b6105e78161054c565b81146105f257600080fd5b50565b600081359050610604816105de565b92915050565b600080600060608486031215610623576106226103b3565b5b600084013567ffffffffffffffff811115610641576106406103b8565b5b61064d868287016104d5565b935050602061065e868287016105c9565b925050604061066f868287016105f5565b9150509250925092565b600081519050919050565b600081905092915050565b60005b838110156106ad578082015181840152602081019050610692565b60008484015250505050565b60006106c482610679565b6106ce8185610684565b93506106de81856020860161068f565b80840191505092915050565b60006106f682846106b9565b915081905092915050565b600082825260208201905092915050565b7f416d6f756e74206d7573742062652067726561746572207468616e207a65726f600082015250565b6000610748602083610701565b915061075382610712565b602082019050919050565b600060208201905081810360008301526107778161073b565b9050919050565b7f4e487b7100000000000000000000000000000000000000000000000000000000600052601160045260246000fd5b60006107b88261054c565b91506107c38361054c565b92508282019050808211156107db576107da61077e565b5b92915050565b7f496e73756666696369656e742066756e64730000000000000000000000000000600082015250565b6000610817601283610701565b9150610822826107e1565b602082019050919050565b600060208201905081810360008301526108468161080a565b9050919050565b60006108588261054c565b91506108638361054c565b925082820390508181111561087b5761087a61077e565b5b9291505056fea2646970667358221220881d096cc36f1bccaab72d0842f443fde44fe7daf7accde2aa40f3a8d9b46f6464736f6c634300081c0033",
  "linkReferences": {},
  "deployedLinkReferences": {}
}